H202301191310_DEBITCARDTRANSACTION.TXT             00000000102023-01-19T13:10:27.166-05:00     2023-01-18T23:59:59.000-05:00     
0000000002746217047000000000274621704800101449394219Test                                                                                                                            User                                                                                                                            memo                     AUSTIN       TX         230050003035000303               5947  RETAIL12345678       0000000000000000000000000000000000000000NYC200000000000000000000000000000000000000000200021000                  00000000000000000000         100000000000                                                                                                                                                                                                                                                                                12345678                       0000000000                                 5947TXUS00000000012902                                                                                                                01030000000831    0118050723
0000000002746222481000000000274622179300101449394219Test                                                                                                                            User                                                                                                                            darwin still work        DENVER                  230050003053050479               5947  RETAIL12345678       0000000000000000000000000000000000000000VSN200000000000000000000000000000000000000000220023000               00 00000000000000000000                     875A15C2BT2   875A15C2BT2                                                                                                                                                                                                                                                       12345678                       0000000000                                 5947  US00000000012902                                                                                                                00000000000000    0118051324
0000000002746223227000000000274622307800101449394219Test                                                                                                                            User                                                                                                                            darwin still work        DENVER                  230050003067050479               5947  RETAIL12345678       0000000000000000000000000000000000000000VSN200000000000000000000000000000000000000000220023000               00 00000000000000000000                     875A15C2BT2   875A15C2BT2                                                                                                                                                                                                                                                       12345678                       0000000000                                 5947  US00000000012902                                                                                                                00000000000000    0118051414
0000000002746305965000000000274630319000101449401419Test                                                                                                                            User                                                                                                                            Testing balances 1       DENVER                  230050015225050479               5947  RETAIL12345678       0000000000000000000000000000000000000000VSN200000000000000000000000000000000000000000220023000               00 00000000000000000000                     875A15C2BT2   875A15C2BT2                                                                                                                                                                                                                                                       12345678                       0000000000                                 5947  US00000000012902                                                                                                                00000000000000    0118062201
0000000002746463161000000000274646102000101449394219Test                                                                                                                            User                                                                                                                            lock notif               DENVER                  230050015776050479               5947  RETAIL12345678       0000000000000000000000000000000000000000VSN200000000000000000000000000000000000000000220023000               00 00000000000000000000                     875A15C2BT2   875A15C2BT2                                                                                                                                                                                                                                                       12345678                       0000000000                                 5947  US00000000012902                                                                                                                00000000000000    0118083836
0000000002746536528000000000274653602800101449868111Test                                                                                                                            User                                                                                                                            HRT testing              DENVER                  230050016284050479               5947  RETAIL12345678       0000000000000000000000000000000000000000VSN200000000000000000000000000000000000000000220023000               00 00000000000000000000                     875A15C2BT2   875A15C2BT2                                                                                                                                                                                                                                                       12345678                       0000000000                                 5947  US00000000012902                                                                                                                00000000000000    0118094335
0000000002746562062000000000274656166000101427506939Test                                                                                                                            User                                                                                                                            qe e2e-1674079358599     DENVER                  230050016333050479               5947  RETAIL12345678       0000000000000000000000000000000000000000VSN200000000000000000000000000000000000000000220023000               00 00000000000000000000                     875A15C2BT2   875A15C2BT2                                                                                                                                                                                                                                                       12345678                       0000000000                                 5947  US00000000012902                                                                                                                00000000000000    0118100258
0000000002746569669000000000274656962100101427506939Test                                                                                                                            User                                                                                                                            qe e2e-1674079718925     DENVER                  230050016372050479               5947  RETAIL12345678       0000000000000000000000000000000000000000VSN200000000000000000000000000000000000000000220023000               00 00000000000000000000                     875A15C2BT2   875A15C2BT2                                                                                                                                                                                                                                                       12345678                       0000000000                                 5947  US00000000012902                                                                                                                00000000000000    0118100841
0000000002746569876000000000274656983500101427506939Test                                                                                                                            User                                                                                                                            qe e2e-1674079732908     DENVER                  230050016380050479               5947  RETAIL12345678       0000000000000000000000000000000000000000VSN200000000000000000000000000000000000000000220023000               00 00000000000000000000                     875A15C2BT2   875A15C2BT2                                                                                                                                                                                                                                                       12345678                       0000000000                                 5947  US00000000012902                                                                                                                00000000000000    0118100855
0000000002746578815000000000274657814700101449868111Test                                                                                                                            User                                                                                                                            HRT testing              DENVER                  230050016567050479               5947  RETAIL12345678       0000000000000000000000000000000000000000VSN200000000000000000000000000000000000000000220023000               00 00000000000000000000                     875A15C2BT2   875A15C2BT2                                                                                                                                                                                                                                                       12345678                       0000000000                                 5947  US00000000012902                                                                                                                00000000000000    0118101753