H202401050003_BULKTRANSFER.TXT                     00000001452024-01-05T00:03:14.032-05:00     2024-01-05T00:03:12.000-05:00     3233                                              
0000006903                                                  6905-6906                                         RCR000000200000000069060000006905Recurring Deposit                                                                                                                                                                                                                                                                                                                                                            
0000006942                                                  6955-6956                                         RCR000000010000000069560000006955Recurring Deposit                                                                                                                                                                                                                                                                                                                                                            
0000006903                                                  6905-6906                                         RCR000000200000000069060000006905Recurring Deposit                                                                                                                                                                                                                                                                                                                                                            
0000006942                                                  6955-6956                                         RCR000000010000000069560000006955Recurring Deposit                                                                                                                                                                                                                                                                                                                                                            
0000006903                                                  6905-6906                                         RCR000000200000000069060000006905Recurring Deposit                                                                                                                                                                                                                                                                                                                                                            
0000006942                                                  6955-6956                                         RCR000000010000000069560000006955Recurring Deposit                                                                                                                                                                                                                                                                                                                                                            
0000006903                                                  6905-6906                                         RCR000000200000000069060000006905Recurring Deposit                                                                                                                                                                                                                                                                                                                                                            
0000006942                                                  6955-6956                                         RCR000000010000000069560000006955Recurring Deposit                                                                                                                                                                                                                                                                                                                                                            
0000006903                                                  6905-6906                                         RCR000000200000000069060000006905Recurring Deposit                                                                                                                                                                                                                                                                                                                                                            
0000006942                                                  6955-6956                                         RCR000000010000000069560000006955Recurring Deposit                                                                                                                                                                                                                                                                                                                                                            
0000006903                                                  6905-6906                                         RCR000000200000000069060000006905Recurring Deposit                                                                                                                                                                                                                                                                                                                                                            
0000006942                                                  6955-6956                                         RCR000000010000000069560000006955Recurring Deposit                                                                                                                                                                                                                                                                                                                                                            
0000006903                                                  6905-6906                                         RCR000000200000000069060000006905Recurring Deposit                                                                                                                                                                                                                                                                                                                                                            
0000006942                                                  6955-6956                                         RCR000000010000000069560000006955Recurring Deposit                                                                                                                                                                                                                                                                                                                                                            
0000006903                                                  6905-6906                                         RCR000000200000000069060000006905Recurring Deposit                                                                                                                                                                                                                                                                                                                                                            
0000006942                                                  6955-6955                                         TRF000000010000000069060000006955Peer-to-peer transfer1                                                                                                                                                                                                                                         0000006903                                                                                                    
          CustomerTag_AAC6BD17-A6DF-437C-8F9C-31A7368A15A9                                                    TRF000000010000000069060000006955Peer-to-peer transfer2                                                                                                                                                                                                                                                   CustomerTag_26BE3D34-3E61-4340-A19A-C8638B9BA1B1                                                    
0000006942                                                  TransferTag_9FB376F8-1FCC-4B17-8BA0-B9D813108AE4  TRF000000010000000069060000006955Peer-to-peer transfer3                                                                                                                                                                                                                                         0000006903                                                  TransferTag_EFCC3D7C-F4DB-4234-8314-01BF85C865E3  
0000006903                                                  6905-6906                                         RCR000000200000000069060000006905Recurring Deposit                                                                                                                                                                                                                                                                                                                                                            
0000006942                                                  6955-6956                                         RCR000000010000000069560000006955Recurring Deposit                                                                                                                                                                                                                                                                                                                                                            
0000006903                                                  6905-6906                                         RCR000000200000000069060000006905Recurring Deposit                                                                                                                                                                                                                                                                                                                                                            
0000006942                                                  6955-6956                                         RCR000000010000000069560000006955Recurring Deposit                                                                                                                                                                                                                                                                                                                                                            
0000006903                                                  6905-6906                                         RCR000000200000000069060000006905Recurring Deposit                                                                                                                                                                                                                                                                                                                                                            
0000006942                                                  6955-6956                                         RCR000000010000000069560000006955Recurring Deposit                                                                                                                                                                                                                                                                                                                                                            
0000006903                                                  6905-6906                                         RCR000000200000000069060000006905Recurring Deposit                                                                                                                                                                                                                                                                                                                                                            
0000006942                                                  6955-6956                                         RCR000000010000000069560000006955Recurring Deposit                                                                                                                                                                                                                                                                                                                                                            
0000006903                                                  6905-6906                                         RCR000000200000000069060000006905Recurring Deposit                                                                                                                                                                                                                                                                                                                                                            
0000006942                                                  6955-6956                                         RCR000000010000000069560000006955Recurring Deposit                                                                                                                                                                                                                                                                                                                                                            
0000006903                                                  6905-6906                                         RCR000000200000000069060000006905Recurring Deposit                                                                                                                                                                                                                                                                                                                                                            
0000006942                                                  6955-6956                                         RCR000000010000000069560000006955Recurring Deposit                                                                                                                                                                                                                                                                                                                                                            
0000006903                                                  6905-6906                                         RCR000000200000000069060000006905Recurring Deposit                                                                                                                                                                                                                                                                                                                                                            
0000006942                                                  6955-6956                                         RCR000000010000000069560000006955Recurring Deposit                                                                                                                                                                                                                                                                                                                                                            
0000006903                                                  6905-6906                                         RCR000000200000000069060000006905Recurring Deposit                                                                                                                                                                                                                                                                                                                                                            
0000006942                                                  6955-6956                                         RCR000000010000000069560000006955Recurring Deposit                                                                                                                                                                                                                                                                                                                                                            
0000006903                                                  6905-6906                                         RCR000000200000000069060000006905Recurring Deposit                                                                                                                                                                                                                                                                                                                                                            
0000006942                                                  6955-6956                                         RCR000000010000000069560000006955Recurring Deposit                                                                                                                                                                                                                                                                                                                                                            
0000006903                                                  6905-6906                                         RCR000000200000000069060000006905Recurring Deposit                                                                                                                                                                                                                                                                                                                                                            
0000006942                                                  6955-6956                                         RCR000000010000000069560000006955Recurring Deposit                                                                                                                                                                                                                                                                                                                                                            
0000006903                                                  6905-6906                                         RCR000000200000000069060000006905Recurring Deposit                                                                                                                                                                                                                                                                                                                                                            
0000006942                                                  6955-6956                                         RCR000000010000000069560000006955Recurring Deposit                                                                                                                                                                                                                                                                                                                                                            
0000006903                                                  6905-6906                                         RCR000000200000000069060000006905Recurring Deposit                                                                                                                                                                                                                                                                                                                                                            
0000006942                                                  6955-6956                                         RCR000000010000000069560000006955Recurring Deposit                                                                                                                                                                                                                                                                                                                                                            
0000006903                                                  6905-6906                                         RCR000000200000000069060000006905Recurring Deposit                                                                                                                                                                                                                                                                                                                                                            
0000006942                                                  6955-6956                                         RCR000000010000000069560000006955Recurring Deposit                                                                                                                                                                                                                                                                                                                                                            
0000006903                                                  6905-6906                                         RCR000000200000000069060000006905Recurring Deposit                                                                                                                                                                                                                                                                                                                                                            
0000006942                                                  6955-6956                                         RCR000000010000000069560000006955Recurring Deposit                                                                                                                                                                                                                                                                                                                                                            
0000006903                                                  6905-6906                                         RCR000000200000000069060000006905Recurring Deposit                                                                                                                                                                                                                                                                                                                                                            
0000006942                                                  6955-6956                                         RCR000000010000000069560000006955Recurring Deposit                                                                                                                                                                                                                                                                                                                                                            
0000006903                                                  6905-6906                                         RCR000000200000000069060000006905Recurring Deposit                                                                                                                                                                                                                                                                                                                                                            
0000006942                                                  6955-6956                                         RCR000000010000000069560000006955Recurring Deposit                                                                                                                                                                                                                                                                                                                                                            
0000006903                                                  6905-6906                                         RCR000000200000000069060000006905Recurring Deposit                                                                                                                                                                                                                                                                                                                                                            
0000006942                                                  6955-6956                                         RCR000000010000000069560000006955Recurring Deposit                                                                                                                                                                                                                                                                                                                                                            
0000006903                                                  6905-6906                                         RCR000000200000000069060000006905Recurring Deposit                                                                                                                                                                                                                                                                                                                                                            
0000006942                                                  6955-6956                                         RCR000000010000000069560000006955Recurring Deposit                                                                                                                                                                                                                                                                                                                                                            
0000006903                                                  6905-6906                                         RCR000000200000000069060000006905Recurring Deposit                                                                                                                                                                                                                                                                                                                                                            
0000006942                                                  6955-6956                                         RCR000000010000000069560000006955Recurring Deposit                                                                                                                                                                                                                                                                                                                                                            
0000006903                                                  6905-6906                                         RCR000000200000000069060000006905Recurring Deposit                                                                                                                                                                                                                                                                                                                                                            
0000006942                                                  6955-6956                                         RCR000000010000000069560000006955Recurring Deposit                                                                                                                                                                                                                                                                                                                                                            
0000006903                                                  6905-6906                                         RCR000000200000000069060000006905Recurring Deposit                                                                                                                                                                                                                                                                                                                                                            
0000006942                                                  6955-6956                                         RCR000000010000000069560000006955Recurring Deposit                                                                                                                                                                                                                                                                                                                                                            
0000006903                                                  6905-6906                                         RCR000000200000000069060000006905Recurring Deposit                                                                                                                                                                                                                                                                                                                                                            
0000006942                                                  6955-6956                                         RCR000000010000000069560000006955Recurring Deposit                                                                                                                                                                                                                                                                                                                                                            
0000006903                                                  6905-6906                                         RCR000000200000000069060000006905Recurring Deposit                                                                                                                                                                                                                                                                                                                                                            
0000006942                                                  6955-6956                                         RCR000000010000000069560000006955Recurring Deposit                                                                                                                                                                                                                                                                                                                                                            
0000006903                                                  6905-6906                                         RCR000000200000000069060000006905Recurring Deposit                                                                                                                                                                                                                                                                                                                                                            
0000006942                                                  6955-6956                                         RCR000000010000000069560000006955Recurring Deposit                                                                                                                                                                                                                                                                                                                                                            
0000006903                                                  6905-6906                                         RCR000000200000000069060000006905Recurring Deposit                                                                                                                                                                                                                                                                                                                                                            
0000006942                                                  6955-6956                                         RCR000000010000000069560000006955Recurring Deposit                                                                                                                                                                                                                                                                                                                                                            
0000006903                                                  6905-6906                                         RCR000000200000000069060000006905Recurring Deposit                                                                                                                                                                                                                                                                                                                                                            
0000006942                                                  6955-6956                                         RCR000000010000000069560000006955Recurring Deposit                                                                                                                                                                                                                                                                                                                                                            
0000006903                                                  6905-6906                                         RCR000000200000000069060000006905Recurring Deposit                                                                                                                                                                                                                                                                                                                                                            
0000006942                                                  6955-6956                                         RCR000000010000000069560000006955Recurring Deposit                                                                                                                                                                                                                                                                                                                                                            
0000006903                                                  6905-6906                                         RCR000000200000000069060000006905Recurring Deposit                                                                                                                                                                                                                                                                                                                                                            
0000006942                                                  6955-6956                                         RCR000000010000000069560000006955Recurring Deposit                                                                                                                                                                                                                                                                                                                                                            
0000006903                                                  6905-6906                                         RCR000000200000000069060000006905Recurring Deposit                                                                                                                                                                                                                                                                                                                                                            
0000006942                                                  6955-6956                                         RCR000000010000000069560000006955Recurring Deposit                                                                                                                                                                                                                                                                                                                                                            
0000006903                                                  6905-6906                                         RCR000000200000000069060000006905Recurring Deposit                                                                                                                                                                                                                                                                                                                                                            
0000006942                                                  6955-6956                                         RCR000000010000000069560000006955Recurring Deposit                                                                                                                                                                                                                                                                                                                                                            
0000006903                                                  6905-6906                                         RCR000000200000000069060000006905Recurring Deposit                                                                                                                                                                                                                                                                                                                                                            
0000006942                                                  6955-6956                                         RCR000000010000000069560000006955Recurring Deposit                                                                                                                                                                                                                                                                                                                                                            
0000006903                                                  6905-6906                                         RCR000000200000000069060000006905Recurring Deposit                                                                                                                                                                                                                                                                                                                                                            
0000006942                                                  6955-6956                                         RCR000000010000000069560000006955Recurring Deposit                                                                                                                                                                                                                                                                                                                                                            
0000006903                                                  6905-6906                                         RCR000000200000000069060000006905Recurring Deposit                                                                                                                                                                                                                                                                                                                                                            
0000006942                                                  6955-6956                                         RCR000000010000000069560000006955Recurring Deposit                                                                                                                                                                                                                                                                                                                                                            
0000006903                                                  6905-6906                                         RCR000000200000000069060000006905Recurring Deposit                                                                                                                                                                                                                                                                                                                                                            
0000006942                                                  6955-6956                                         RCR000000010000000069560000006955Recurring Deposit                                                                                                                                                                                                                                                                                                                                                            
0000006903                                                  6905-6906                                         RCR000000200000000069060000006905Recurring Deposit                                                                                                                                                                                                                                                                                                                                                            
0000006942                                                  6955-6956                                         RCR000000010000000069560000006955Recurring Deposit                                                                                                                                                                                                                                                                                                                                                            
0000006903                                                  6905-6906                                         RCR000000200000000069060000006905Recurring Deposit                                                                                                                                                                                                                                                                                                                                                            
0000006942                                                  6955-6956                                         RCR000000010000000069560000006955Recurring Deposit                                                                                                                                                                                                                                                                                                                                                            
0000006903                                                  6905-6906                                         RCR000000200000000069060000006905Recurring Deposit                                                                                                                                                                                                                                                                                                                                                            
0000006942                                                  6955-6956                                         RCR000000010000000069560000006955Recurring Deposit                                                                                                                                                                                                                                                                                                                                                            
0000006903                                                  6905-6906                                         RCR000000200000000069060000006905Recurring Deposit                                                                                                                                                                                                                                                                                                                                                            
0000006942                                                  6955-6956                                         RCR000000010000000069560000006955Recurring Deposit                                                                                                                                                                                                                                                                                                                                                            
0000006903                                                  6905-6906                                         RCR000000200000000069060000006905Recurring Deposit                                                                                                                                                                                                                                                                                                                                                            
0000006942                                                  6955-6956                                         RCR000000010000000069560000006955Recurring Deposit                                                                                                                                                                                                                                                                                                                                                            
0000006903                                                  6905-6906                                         RCR000000200000000069060000006905Recurring Deposit                                                                                                                                                                                                                                                                                                                                                            
0000006942                                                  6955-6956                                         RCR000000010000000069560000006955Recurring Deposit                                                                                                                                                                                                                                                                                                                                                            
0000006903                                                  6905-6906                                         RCR000000200000000069060000006905Recurring Deposit                                                                                                                                                                                                                                                                                                                                                            
0000006942                                                  6955-6956                                         RCR000000010000000069560000006955Recurring Deposit                                                                                                                                                                                                                                                                                                                                                            
0000006903                                                  6905-6906                                         RCR000000200000000069060000006905Recurring Deposit                                                                                                                                                                                                                                                                                                                                                            
0000006942                                                  6955-6956                                         RCR000000010000000069560000006955Recurring Deposit                                                                                                                                                                                                                                                                                                                                                            
0000006903                                                  6905-6906                                         RCR000000200000000069060000006905Recurring Deposit                                                                                                                                                                                                                                                                                                                                                            
0000006942                                                  6955-6956                                         RCR000000010000000069560000006955Recurring Deposit                                                                                                                                                                                                                                                                                                                                                            
0000006903                                                  6905-6906                                         RCR000000200000000069060000006905Recurring Deposit                                                                                                                                                                                                                                                                                                                                                            
0000006942                                                  6955-6956                                         RCR000000010000000069560000006955Recurring Deposit                                                                                                                                                                                                                                                                                                                                                            
0000006903                                                  6905-6906                                         RCR000000200000000069060000006905Recurring Deposit                                                                                                                                                                                                                                                                                                                                                            
0000006942                                                  6955-6956                                         RCR000000010000000069560000006955Recurring Deposit                                                                                                                                                                                                                                                                                                                                                            
0000006903                                                  6905-6906                                         RCR000000200000000069060000006905Recurring Deposit                                                                                                                                                                                                                                                                                                                                                            
0000006942                                                  6955-6956                                         RCR000000010000000069560000006955Recurring Deposit                                                                                                                                                                                                                                                                                                                                                            
0000006903                                                  6905-6906                                         RCR000000200000000069060000006905Recurring Deposit                                                                                                                                                                                                                                                                                                                                                            
0000006942                                                  6955-6956                                         RCR000000010000000069560000006955Recurring Deposit                                                                                                                                                                                                                                                                                                                                                            
0000006903                                                  6905-6906                                         RCR000000200000000069060000006905Recurring Deposit                                                                                                                                                                                                                                                                                                                                                            
0000006942                                                  6955-6956                                         RCR000000010000000069560000006955Recurring Deposit                                                                                                                                                                                                                                                                                                                                                            
0000006903                                                  6905-6906                                         RCR000000200000000069060000006905Recurring Deposit                                                                                                                                                                                                                                                                                                                                                            
0000006942                                                  6955-6956                                         RCR000000010000000069560000006955Recurring Deposit                                                                                                                                                                                                                                                                                                                                                            
0000006903                                                  6905-6906                                         RCR000000200000000069060000006905Recurring Deposit                                                                                                                                                                                                                                                                                                                                                            
0000006942                                                  6955-6956                                         RCR000000010000000069560000006955Recurring Deposit                                                                                                                                                                                                                                                                                                                                                            
0000006903                                                  6905-6906                                         RCR000000200000000069060000006905Recurring Deposit                                                                                                                                                                                                                                                                                                                                                            
0000006942                                                  6955-6956                                         RCR000000010000000069560000006955Recurring Deposit                                                                                                                                                                                                                                                                                                                                                            
0000006903                                                  6905-6906                                         RCR000000200000000069060000006905Recurring Deposit                                                                                                                                                                                                                                                                                                                                                            
0000006942                                                  6955-6956                                         RCR000000010000000069560000006955Recurring Deposit                                                                                                                                                                                                                                                                                                                                                            
0000006903                                                  6905-6906                                         RCR000000200000000069060000006905Recurring Deposit                                                                                                                                                                                                                                                                                                                                                            
0000006942                                                  6955-6956                                         RCR000000010000000069560000006955Recurring Deposit                                                                                                                                                                                                                                                                                                                                                            
0000006903                                                  6905-6906                                         RCR000000200000000069060000006905Recurring Deposit                                                                                                                                                                                                                                                                                                                                                            
0000006942                                                  6955-6956                                         RCR000000010000000069560000006955Recurring Deposit                                                                                                                                                                                                                                                                                                                                                            
0000006903                                                  6905-6906                                         RCR000000200000000069060000006905Recurring Deposit                                                                                                                                                                                                                                                                                                                                                            
0000006942                                                  6955-6956                                         RCR000000010000000069560000006955Recurring Deposit                                                                                                                                                                                                                                                                                                                                                            
0000006903                                                  6905-6906                                         RCR000000200000000069060000006905Recurring Deposit                                                                                                                                                                                                                                                                                                                                                            
0000006942                                                  6955-6956                                         RCR000000010000000069560000006955Recurring Deposit                                                                                                                                                                                                                                                                                                                                                            
0000006942                                                  6955-6956                                         RCR000000010000000069560000006955Recurring Deposit                                                                                                                                                                                                                                                                                                                                                            
0000006903                                                  6905-6906                                         RCR000000200000000069060000006905Recurring Deposit                                                                                                                                                                                                                                                                                                                                                            
0000006942                                                  6955-6956                                         RCR000000010000000069560000006955Recurring Deposit                                                                                                                                                                                                                                                                                                                                                            
0000006903                                                  6905-6906                                         RCR000000200000000069060000006905Recurring Deposit                                                                                                                                                                                                                                                                                                                                                            
0000006903                                                  6905-6906                                         RCR000000200000000069060000006905Recurring Deposit                                                                                                                                                                                                                                                                                                                                                            
0000006942                                                  6955-6956                                         RCR000000010000000069560000006955Recurring Deposit                                                                                                                                                                                                                                                                                                                                                            
0000007053jgrask@example12.com                              7055-8672                                         RCR000000830000000086720000007055Recurring Deposit                                                                                                                                                                                                                                                                                                                                                            
0000007219jan1202015x1@example1234.COM                      7221-7222                                         RCR000009999900000072220000007221Recurring Deposit                                                                                                                                                                                                                                                                                                                                                            
0000007442mferrari@example1234.com                          7719-7720                                         RCR000000250000000077200000007719Recurring Deposit                                                                                                                                                                                                                                                                                                                                                            
0000007817Amanda.grask@example12.com                        7819-7820                                         RCR000000250000000078200000007819Recurring Deposit                                                                                                                                                                                                                                                                                                                                                            
0000007825test242015aA@example.com                          7827-7828                                         RCR000000090000000078280000007827Recurring Deposit                                                                                                                                                                                                                                                                                                                                                            
0000007842john48@examp.com                                  7844-7845                                         RCR000001530000000078450000007844Recurring Deposit                                                                                                                                                                                                                                                                                                                                                            
0000008231john70@example12.com                              8233-8234                                         RCR000000500000000082340000008233Recurring Deposit                                                                                                                                                                                                                                                                                                                                                            
0000008667john77@example12.com                              8669-8670                                         RCR000000830000000086700000008669Recurring Deposit                                                                                                                                                                                                                                                                                                                                                            
0000008689john78@example12.com                              8691-8692                                         RCR000000830000000086920000008691Recurring Deposit                                                                                                                                                                                                                                                                                                                                                            